:020000040800F2
:10000000D83F00202102000821210008BB19000868
:10001000A920000861050008BD34000800000000A8
:10002000000000000000000000000000890100083E
:100030004506000800000000CD010008D13000088E
:100040003B0200083B0200083B0200083B0200089C
:100050003B0200083B0200083B020008470600087C
:100060004D06000853060008590600083B02000828
:100070003B0200083B0200083B0200083B0200086C
:100080003B0200083B0200083B0200083B0200085C
:100090003B0200083B0200083B0200083B0200084C
:1000A0003B0200085D3100083B0200083B020008EB
:1000B0003B0200083B020008693100083B020008CF
:1000C0003B0200083B0200083B0200083B0200081C
:1000D0003B0200083B0200083B0200083B0200080C
:1000E0003B0200083B0200083B02000800F002F857
:1000F00000F03AF80AA090E8000C82448344AAF188
:100100000107DA4501D100F02FF8AFF2090EBAE885
:100110000F0013F0010F18BFFB1A43F0010318473B
:100120000C7C00002C7C0000103A24BF78C878C1F9
:10013000FAD8520724BF30C830C144BF04680C60ED
:10014000704700000023002400250026103A28BF35
:1001500078C1FBD8520728BF30C148BF0B60704739
:100160001FB51FBD10B510BD00F058F91146FFF7BF
:10017000F7FF03F0A5FD00F076F903B4FFF7F2FFF7
:1001800003BC00F079F90000224B19680868B0E858
:10019000F00F80F30988BFF36F8F4FF0000080F3FA
:1001A00011884EF00D0E70470000000006480068F0
:1001B000006880F3088862B661B6BFF34F8FBFF363
:1001C0006F8F00DF00BF00BF08ED00E0EFF3098094
:1001D000BFF36F8F0F4B1A6820E9F00F106008B55E
:1001E0004FF0400080F31188BFF34F8FBFF36F8F44
:1001F00004F068FE4FF0000080F31188BDE808406D
:1002000019680868B0E8F00F80F30988BFF36F8FB2
:10021000704700BF48000020EFF3058070470000E2
:100220000948804709480047FEE7FEE7FEE7FEE78A
:10023000FEE7FEE7FEE7FEE7FEE7FEE704480549C6
:10024000054A064B704700005B310008ED000008CE
:10025000D8390020D83F0020D83B0020D83B0020D0
:10026000032A40F2308010F0030C00F0158011F8E2
:10027000013BBCF1020F624498BF11F801CB00F8BA
:10028000013B38BF11F8013BA2F1040298BF00F80E
:1002900001CB38BF00F8013B11F0030300F062808E
:1002A000083AC0F0088051F8043B083A51F804CBF2
:1002B000A0E80810F5E7121D5CBF51F8043B40F8B8
:1002C000043BAFF30080D20724BF11F8013B11F8C3
:1002D00001CB48BF11F8012B24BF00F8013B00F807
:1002E00001CB48BF00F8012B704702F0FF0343EA3F
:1002F000032242EA024200F069B84FF0000200B562
:10030000134694469646203922BFA0E80C50A0E838
:100310000C50B1F12001BFF4F7AF090728BFA0E8E6
:100320000C5048BF0CC05DF804EB890028BF40F8B2
:10033000042B08BF704748BF20F8022B11F0804FF4
:1003400018BF00F8012B704770477047704710B511
:1003500000F05CF8006810BD10B5044600F056F8D7
:10036000046010BD10B5203AC0F00B80B1E8185001
:10037000203AA0E81850B1E81850A0E81850BFF48F
:10038000F5AF5FEA027C24BFB1E81850A0E818502E
:1003900044BF18C918C0BDE810405FEA827C24BF82
:1003A00051F8043B40F8043B08BF7047D20728BF10
:1003B00031F8023B48BF11F8012B28BF20F8023B5F
:1003C00048BF00F8012B70474FF000020429C0F02D
:1003D000128010F0030C3FF492AFCCF1040CBCF18E
:1003E000020F18BF00F8012BA8BF20F8022BA1EBC9
:1003F0000C01FFF784BF5FEAC17C24BF00F8012B2A
:1004000000F8012B48BF00F8012B704700487047E7
:100410007839002000487047783900207546FFF78A
:10042000F9FFAE4605006946534620F007008546B1
:1004300018B020B5FFF702FFBDE820404FF00006DE
:100440004FF000074FF000084FF0000B21F00701BC
:10045000AC46ACE8C009ACE8C009ACE8C009ACE8FF
:10046000C0098D46704710B50446AFF300802046A2
:10047000BDE81040FFF781BE01491820ABBEFEE782
:1004800026000200704700002DE9F0410446007884
:100490002F4D6FF00108012814D0831E00262D4F28
:1004A000022B3BD22C4D08465AB306F06BF9294675
:1004B00006F086F8A16806F045FA2849A06088424F
:1004C0001DDA27E008466AB106F05CF9414606F0FD
:1004D00018FBA16806F036FAA060A8420BDDA56003
:1004E000BDE8F08106F04EF9414606F00AFBA1682E
:1004F00005F0FEFFF0E74FF07E518842F0DAA16090
:10050000EEE706F03FF9294606F05AF8A16805F033
:10051000EFFFD2E7B842E3D3A660E1E70428DFD3D8
:1005200008465AB106F02EF9414606F0EAFAA168EB
:1005300006F008FAA060A842ECDDD0E706F022F948
:10054000414606F0DEFAA16805F0D2FFF2E70000AE
:100550000000C8420000808000002042CDCCCC3F8B
:10056000FEE781807047C021C18001210160002128
:10057000818001817047000070B50C460021018127
:100580001649204606F012F905461548844201DB5B
:10059000012007E0A4F17E54B4F1D87F01D20B20F2
:1005A00000E06E200F4C411E2268916206F0EAF8CE
:1005B000294606F0FBF801460B4806F001F84FF01B
:1005C0007E5106F0C9F906F0BDF8216880B2C86214
:1005D000E0602046BDE8704000F098BF0000C842CF
:1005E00000003041CC0300204054894C10B500215C
:1005F0000181818000F008F8BDE81040014800F05A
:10060000B1BF0000CC0300201CB502680121012A03
:100610000ED030228DF804205FF000028DF8052006
:100620000091C188022301AA054800F02DFA1CBDE3
:100630008288C2F303228DF804208288EEE700004E
:10064000240300207047022000F04EB8042000F080
:100650004BB8082000F048B8102000F045B872B63A
:10066000FEE7000030B512490968496A41804488B4
:10067000058801220021D303AC4211D344889C4257
:1006800006D904889C4203D282800188428802E015
:10069000818041880288891AC1804188018030BDEB
:1006A00004889C42F0D944889C42F1D3ECE70000D6
:1006B0001404002070B5044600F01CF90546601CC7
:1006C00002D004480078044400F014F9401BA04212
:1006D000FAD370BD3800002002480121806A03F07F
:1006E00085BB000000000020044910B50A680242E2
:1006F00002D00860FFF7F0FF10BD000014040140B5
:100700002DE9F84FDFF8B8910024A9F1040B234636
:100710000F2709F1040AABF1040EC9E00125A54039
:100720002A40AA427DD1674ED1F804C0ACEB06083E
:10073000B44532D014DCBCF1030F3AD009DCBCF173
:10074000000F2AD0BCF1010F1CD0BCF1020F31D137
:100750001DE0BCF1110F17D0BCF1120F2AD119E026
:10076000B8F5881F19D006DCB8F5803F15D0B8F56C
:10077000801F1FD111E0B8F5001F0ED0B8F5041F7F
:1007800018D10AE0CB6815E0CB681B1D12E0CB68DE
:1007900008330FE0CB680C330CE08B682BB1012BD6
:1007A0004FF0080303D0456104E0042302E0056133
:1007B00000E00023FF2A01D8064601E000F104060C
:1007C0004FEA840501D9A5F12005D6F8008007FA83
:1007D00005FC28EA0C0803FA05F548EA0508C6F8FE
:1007E00000804D68ED0062D5374DAE6946F00106D8
:1007F000AE61AD6924F0030605F001050095334DA7
:1008000006EB050CDCF80850A607360F07FA06F8C9
:1008100025EA0805DFF8B880404503D14FF000080D
:1008200017E044E0DFF8AC80404502D14FF001080A
:100830000FE0DFF8A480404502D14FF0020808E045
:10084000DFF89880404502D14FF0030801E04FF0F7
:10085000040808FA06F848EA0508CCF808804D684C
:10086000D9F80060ED024D4601D5164300E09643ED
:100870002E604D68DAF80060AD02554601D516438A
:1008800000E096432E604D68DBF80060AD035D46E6
:1008900001D5164300E096432E604D68DEF80060F7
:1008A000ED03754601D5164300E096432E60641CA7
:1008B0000D682A46E5407FF431AFBDE8F88F0000AF
:1008C0000804014000001110001002400000014027
:1008D00000080140000C01400010014000140140DC
:1008E0008068084000D0012070470AB1016170475C
:1008F0000904FBE7014880687047000038000020C9
:1009000070B5040025D094F83D00002520B984F886
:100910003C50204600F0E6F9242084F83D00206891
:10092000016821F0010101602068016841F4004183
:1009300001602068016821F40041016000F09EFB25
:100940004D4A6168914201D84C4900E04C498842C7
:1009500001D2012070BD4B492368B0FBF1F15E6804
:1009600026F03F060E435E606368934206D94FF45B
:10097000967359434FF47A73B1FBF3F12368491C22
:100980001E6A26F03F06314319626168914210D811
:100990004900401EB0FBF1F2521CC2F30B02042AC4
:1009A00001D2042022E0B0FBF1F0401CC0F30B00A8
:1009B0001CE0A268F2B301EBC10303EB0116431E76
:1009C000B3FBF6F35B1C43F480431B0549D092B3A1
:1009D00001EBC10202EB0111401EB0FBF1F0401C23
:1009E000C0F30B0040F4804040F400402168CA6925
:1009F0004CF6FF739A431043C861D4E907100143D2
:100A00002068026822F0C00211430160D4E90301AA
:100A100001432068826848F2FF339A4311438160A2
:100A2000D4E9050108432168CA6822F0FF02104397
:100A3000C86001E00EE016E02068016841F00101A5
:100A400001602564202084F83D00256384F83E5031
:100A5000002070BD01EB4106431EB3FBF6F35B1CA7
:100A6000B3E70120C2E701EB4101401EB0FBF1F00A
:100A7000401CC0F30B00B7E7A086010080841E0075
:100A800000093D0040420F002DE9F84F1F469046F7
:100A90008A460446DDF82890FFF72CFF054694F8B7
:100AA0003D0020287FD1192301224049204600958E
:100AB00001F06AF8002876D194F83C00012872D041
:100AC000012084F83C0020680168C90703D101684F
:100AD00041F0010101602068016821F400610160BA
:100AE000212084F83D00102084F83E000026266472
:100AF000C4F824806785608D20852D48E0622B46F0
:100B00004A465146204600F071FF90B9206841697D
:100B10008069009036E02A464946204601F0DAF81E
:100B200050B1206C042804D12068016841F40071A0
:100B300001600120BDE8F88F606A216800780861D3
:100B4000606A401C6062618D491E6185218D491E6D
:100B500089B2218522685369DB435B070BD451B10D
:100B600000781061606A401C6062608D401E608584
:100B7000208D401E20852A464946204600F0D8FF99
:100B80000028CED1208D0028C5D154F83D0B016836
:100B900041F400710160202004F81E09E6776677B1
:100BA0000020C7E7FFE70220C4E7000002001000B2
:100BB0000000FFFF2DE9FF4F83B09A46DDE9119752
:100BC00093460446DDF84080FFF794FE054694F80E
:100BD0003D0020287FD1192301224049204600955D
:100BE00000F0D2FF002876D194F83C00012872D0A2
:100BF000012084F83C0020680168C90703D101681E
:100C000041F0010101602068016821F40061016088
:100C1000212084F83D00402084F83E000026266410
:100C2000C4F82480A4F82A90608D20852C48E062C6
:100C3000CDE9007553465A462046049900F024FF3A
:100C400070B930E02A463946204601F043F858B1E1
:100C5000206C042804D12068016841F4007101600F
:100C6000012007B0BDE8F08F606A21680078086154
:100C7000606A401C6062218D491E89B22185628DA7
:100C8000521E628522685369DB435B070BD469B14E
:100C900000781061606A401C6062208D401E2085D3
:100CA000608D401E6085208D0028CBD12A463946B4
:100CB000204600F03DFF0028CAD154F83D0B0168E2
:100CC00041F400710160202004F81E09E677667780
:100CD0000020C6E7FFE70220C3E700000200100083
:100CE0000000FFFF30B585B0002100910191029115
:100CF00003911E4D03681E4C122103221D48AB4276
:100D000016D1A36943F00803A361A369039203F01A
:100D100008030493C023CDE900316946FFF7F0FCD6
:100D2000E06940F40010E061E06900F4001019E0AF
:100D3000114DAB4217D1A36943F00803A361A36926
:100D4000039203F0080304934FF44063CDE90031AC
:100D50006946FFF7D5FCE06940F48000E061E06996
:100D600000F48000049005B030BD00000054004045
:100D700000100240000C0140005800400248816809
:100D8000027811448160704738000020074810B590
:100D9000016841F010010160032000F0A7F80F2066
:100DA00000F006F800F050F8002010BD00200240CE
:100DB00030B505461F4887B0C16941F00401C161E3
:100DC000C06906A900F00400009001A800F036F9FF
:100DD0000498B0B100F052F940001749174AB0FB2F
:100DE000F1F11748491E0260416040F2E7320021EC
:100DF000C0E903218160816100F03CFB040003D065
:100E000015E000F03BF9E8E70D4800F07FFB040037
:100E10000DD11E2000F03CF8102D07D200222946EB
:100E20001E2000F043F80748056000E0012407B0E9
:100E3000204630BD0010024040420F000008004034
:100E40005C0400203C0000200F4808B5816941F097
:100E500001018161816901F001010091C16941F0E5
:100E60008051C161C069002200F0805000900F21C4
:100E7000901E00F01BF80548416821F0E06141F048
:100E80000071416008BD00000010024000000140F8
:100E9000002809DB00F01F02012191404009800079
:100EA00000F1E020C0F8001170470000F0B40E4BD4
:100EB0001B680C46C3F30223C3F10705042D00D9B8
:100EC0000425191D072901D2002300E0DB1E01269D
:100ED00006FA05F1491E214099409E40761E1640B3
:100EE0003143F0BC02F0FFBA0CED00E0064900F01F
:100EF000070208684FF6FF03184040EA0220034A41
:100F000010430860704700000CED00E00000FA0597
:100F10002DE9F0470F46050061D0434E306800F0E0
:100F20000700B84209D2306820F00700384330602B
:100F3000306800F00700B84251D128683B4C810767
:100F400012D5400703D5606840F4E06060602878FF
:100F5000000703D5606840F4605060606068A9686D
:100F600020F0F000084360602878C00728D0686847
:100F7000012810D02168022810D0890700292EDA14
:100F8000616821F0030101436160FFF7B3FC804613
:100F900041F288390DE021688903EFE78901EDE727
:100FA000FFF7A8FCA0EB0801494502D90320BDE8E2
:100FB000F0876068696800F00C00B0EB810FEFD13A
:100FC000306800F00700B8420BD9306820F0070005
:100FD00038433060306800F00700B84201D001208B
:100FE000E5E72878400705D56068E96820F4E06007
:100FF000084360602878000706D56068296920F4F6
:10100000605040EAC100606000F048F86168084A3A
:10101000C1F30311515CC8400649086006480068E6
:10102000FFF7C6FE0020C2E7002002400010024089
:101030006E7B0008440000203C0000200F2202606C
:101040000C4A536803F003034360536803F0F00352
:101050008360536803F4E063C36052684FF4E06355
:1010600003EAD20202610448006800F00700086049
:10107000704700000010024000200240044805496B
:1010800000684968044AC1F30221515CC8407047B6
:1010900044000020001002407E7B00080E4A516888
:1010A0000E4801F00C03042B11D0082B0FD10C4873
:1010B000C1F38343C903C05C0AD55168084AC1F330
:1010C0004041921E515C054A5043B0FBF1F070471D
:1010D00004494843704700000010024000127A00A3
:1010E0005E7B000800093D002DE9F84F040070D038
:1010F0002078C04DC00749D06868C0F3810001283E
:1011000007D06868C0F38100022809D16868C0036D
:1011100006D52868800339D560680028E7D035E017
:101120006068B0F5803F0BD010B1B0F5A02F11D0A2
:10113000286820F480302860286820F4802002E0AD
:10114000286840F480302860606890B1FFF7D2FBD7
:1011500006460AE0286840F480202860F0E700BFD7
:10116000FFF7C8FB801B642873D828688003F7D575
:101170000CE0FFF7BFFB064605E000BFFFF7BAFB38
:10118000801B6428F0D828688003F7D420789A4E12
:1011900080074FF001094FF0000839D5686810F05A
:1011A0000C0F07D06868C0F38100022809D1686875
:1011B000C00306D42868800714D52069012808D107
:1011C00010E02069B0B1C6F80090FFF793FB074626
:1011D00005E00AE1FFF78EFBC01B0228C4D828688F
:1011E0008007F7D52868616920F0F80040EAC1005F
:1011F00028600DE0C6F80080FFF77CFB074604E09E
:10120000FFF778FBC01B022823D828688007F7D493
:10121000207800072CD57948A169D9B1C0F8009091
:10122000FFF768FB074604E0FFF764FBC01B0228DA
:101230000FD8686A8007F7D571484FF4FA510068F3
:10124000B0FBF1F0009000BF0098411E0091FAD26F
:101250000EE080E0C0F80080FFF74CFB074604E09A
:10126000FFF748FBC01B022875D8686A8007F7D4CF
:101270002078400760D5E8690027C00008D4E869F5
:1012800040F08050E861E869012700F0805000904C
:101290005C480168C90513D40168834641F4807134
:1012A0000160FFF727FB824606E000BFFFF722FB45
:1012B000A0EB0A0064284ED8DBF80000C005F5D585
:1012C000E06801280AD008B1052813D0286A20F068
:1012D00001002862286A20F0040002E0286A40F039
:1012E00001002862E06841F2883B98B1FFF702FBF9
:1012F00082460BE0286A40F004002862EEE700BF57
:10130000FFF7F8FAA0EB0A0159455AD8286A800776
:10131000F6D50CE0FFF7EEFA824605E0FFF7EAFAB1
:10132000A0EB0A0159454CD8286A8007F6D41FB1B2
:10133000E86920F08050E861E06988B36968C1F32A
:101340008101022944D00228C6F8608004D0FFF74A
:10135000D1FA044638E034E0FFF7CCFA074604E05F
:10136000FFF7C8FAC01B02282BD828688001F7D4E1
:10137000206AB0F5803F05D16868A16820F400308C
:1013800008436860D4E908010843696821F47411CE
:1013900008436860C6F86090FFF7ACFA044606E0C0
:1013A00025E000BFFFF7A6FA001B022809D828682D
:1013B0008001F7D51BE000BFFFF79CFA001B022855
:1013C00002D90320BDE8F88F28688001F4D40EE02C
:1013D0000128F7D06868226A00F48031914204D174
:1013E000616A00F47010884201D00120EAE7002011
:1013F000E8E7000000100240000042428004424240
:1014000044000020007000407047704770B590F8AD
:101410003C20012A26D0012480F83C40022280F89A
:101420003D2003685A689D6822F070060A683243BE
:101430005A600D4B02689A4208D0B2F1804F05D035
:101440000A4B9A4202D00A4B9A4204D1496825F0CD
:1014500080031943916080F83D40002180F83C10E2
:10146000084670BD022070BD002C01400004004001
:101470000008004010B5040003D094F83D0010B1FE
:1014800007E0012010BD002084F83C00204600F059
:101490001FF8022084F83D00211D206801F06AFE3B
:1014A000012084F8460084F83E0084F83F0084F868
:1014B000400084F8410084F8420084F8430084F836
:1014C000440084F8450084F83D00002010BD000071
:1014D00008B500680B49884212D10B48816941F474
:1014E000006181618069002200F4006000900421A5
:1014F0001920FFF7DBFCBDE808401920FFF7C8BC46
:1015000008BD0000002C01400010024090F83D1082
:10151000012901D001207047022180F83D100168A7
:10152000CA6842F00102CA6000680B49884208D0CC
:10153000B0F1804F05D00949884202D0084988425D
:1015400004D1816801F00701062903D0016841F048
:101550000101016000207047002C014000040040A0
:10156000000800400168CA6822F00102CA600168F0
:101570000A6A41F211131A4207D10A6A9B101A42F1
:1015800003D10A6822F001020A60012180F83D10AF
:101590000020704770B5044690F83C0000250128F3
:1015A00017D0012684F83C60022084F83D002068B2
:1015B000826822F0770222F47F4282600868502815
:1015C00038D00DDC20284FD005DC90B3102811D185
:1015D0004AE0022070BD302846D040280AD13BE0C6
:1015E00060282FD070280DD0B0F5805F03D0B0F503
:1015F000005F12D0012584F83D60002084F83C0093
:10160000284670BDCB68D1E90121206801F0F5FDC5
:101610002068816841F0770109E0CB68D1E90121B8
:10162000206801F0EAFD2068816841F48041816012
:10163000E1E719E0CA684968206801F0F0FD50212F
:10164000206806E0CA684968206801F0F9FD602159
:10165000206801F0DCFDCEE7CA684968206801F027
:10166000DEFD40212068F4E7226801461046F0E7DD
:101670002DE9F0410D46040003D094F83D0018B167
:1016800008E00120BDE8F081002084F83C002046FD
:1016900000F040F8022084F83D002068816844F2A0
:1016A000070291438160211D206801F063FD2268DB
:1016B00090689169166A2B68AF69034340F2033062
:1016C000814341EA0721A868EF6908434FF6FC41CE
:1016D0008843E96840EA0720014328692F6A00012E
:1016E00040EA0730084369686D6926F0220646EA39
:1016F0000515294393602268906154F8460B0162F6
:10170000012004F81F09E0752076E0762077A075A7
:101710000020B7E700B585B000210091019102914A
:10172000039100680D49884216D10D48C16941F006
:101730000201C161C16901F002010491816941F0B6
:10174000040181618069694600F004000490C020B2
:1017500000900448FEF7D4FF05B000BD000400402F
:10176000001002400008014070B590F83E60044649
:1017700090F83F5090F8423090F84320022021B179
:1017800004290ED0012E1BD114E0012E18D1012BFB
:1017900016D184F83E0084F842000122002120681E
:1017A00020E0012D0CD1012A0AD184F83F0084F8F1
:1017B000430014E0012D03D1012B01D1012A01D0F6
:1017C000012070BD84F83E0084F83F0084F8420098
:1017D00084F8430001220021206801F001FD01226C
:1017E0000421206801F0FCFC2068016841F001013F
:1017F0000160002070BD704770B504460068016943
:101800004FF00005C943890715D4C168C94389074A
:1018100011D4E91E016101202077206880698007CA
:10182000204602D0FFF7E7FF04E000F098F82046DA
:1018300000F096F8257720680169C943490717D455
:10184000C168C943490713D46FF004010161022044
:1018500020772068806910F4407F204602D0FFF78F
:10186000CAFF04E000F07BF8204600F079F8257705
:1018700020680169C943090716D4C168C94309072B
:1018800012D46FF008010161042020772068C0693C
:101890008007204602D0FFF7AEFF04E000F05FF8BB
:1018A000204600F05DF8257720680169C943C90624
:1018B00017D4C168C943C90613D46FF01001016180
:1018C000082020772068C06910F4407F204602D0AD
:1018D000FFF791FF04E000F042F8204600F040F8E6
:1018E000257720680169C943C90708D1C168C94380
:1018F000C90704D1891E0161204600F033F8206831
:101900000169C943090609D4C168C943090605D458
:101910006FF0800101612046FFF776FD20680169C4
:10192000C943490609D4C168C943490605D46FF0C3
:1019300040010161204600F03FF820680169C94379
:1019400089060BD4C168C943890607D46FF020010A
:1019500001612046BDE87040FFF757BD70BD70477C
:101960007047000070B51149054600680968884253
:1019700013D10F4C208904F10C0131F810102046CE
:10198000FEF7EFFD20896421401CB0FBF1F201FB62
:10199000120020812046FEF737FE0649286888425B
:1019A00003D1BDE87040FFF7E9B970BDCC0300205A
:1019B000C0000020000800407047FEE701684A6947
:1019C000D24352050FD46FF480624A61002140F87F
:1019D000301F202242738173026942F004020261C7
:1019E000017301207047002070470000F8B50446DD
:1019F000C06A1E460D461746082807D0012805D0A4
:101A000010F5803F02D0206B122804D120680168B5
:101A100041F480710160134600224FF0011120460D
:101A2000009600F0B1F840B120680068C00502D50A
:101A30004FF4007020640320F8BD2069B0F5804F9A
:101A40000ED00620216800EAD51040F0F0000861B1
:101A500033463A460B49204600F0DEF878B902E0FA
:101A600005F0FE0000E0E8B2216808610549334650
:101A70003A46891F204600F0CFF80028DCD001202C
:101A8000F8BD0000080001002DE9F8430446006895
:101A90000D46DDE9089701689846164641F48071C5
:101AA00001604B4600224FF001112046009700F0E4
:101AB0006BF848B120680068C00502D54FF400708B
:101AC00020640320BDE8F883216805F0FE0008616A
:101AD0003B464A461549204600F09EF888B92068E2
:101AE0004169806900903A464946204600F0F2F884
:101AF00048B1206C042804D12068016841F40071C9
:101B000001600120DEE7F5B2B8F1010F09D02168CC
:101B1000300A08613A464946204600F0DBF80028C2
:101B2000E7D1206805610020CCE700000200010039
:101B300070B516460D4604461EE02046FFF73EFFF0
:101B400008B1012070BD681C16D0FEF7D3FE801BC3
:101B5000A84200D885B920684069C04340070BD52A
:101B6000002044F8300F20216173A073216941F0F7
:101B7000200121612073E4E720684069C0434007E9
:101B8000DBD4002070BD00002DE9F04798461746D1
:101B90000D460446C1F30746DDF820902AE000BF59
:101BA000B8F1FF3F26D0FEF7A5FEA0EB09014145A5
:101BB00002D8B8F1000F1DD12068012E16D080691F
:101BC00025EA00000004000C12D00020B84211D118
:101BD000002044F8300F20216173A073216941F087
:101BE0002001216120730120BDE8F0874069E7E70B
:101BF0000120EBE72068012E0AD0806925EA000069
:101C00000004000C06D00020B842C9D00020EBE749
:101C10004069F3E70120F7E72DE9F04798461646BB
:101C20000D4604464FF000094FF0200AC1F3074764
:101C300023E020684069C043400515D4206801684E
:101C400041F40071016021686FF480604861C4F85C
:101C5000309084F83DA084F83E90216C41F004015E
:101C6000216484F83C9021E0701C06D0FEF742FE0F
:101C7000A0EB0800B04203D816B1012F1FD021E01D
:101C80002068012F15D0806925EA00000004000CAF
:101C900018D000BF44F8309F84F80DA084F80E904F
:101CA000216941F02001216184F80C900120BDE8F8
:101CB000F087406925EA00000004000CEAD12068A2
:101CC000406901E02068806925EA00000004000CFA
:101CD000AFD1ECE770B516460D4604461EE020462F
:101CE000FFF76CFE08B1012070BD681C16D0FEF72E
:101CF00001FE801BA84200D885B920684069C04316
:101D000000060BD5002044F8300F20216173A0732A
:101D1000216941F0200121612073E4E720684069D6
:101D2000C0430006DBD4002070BD0021018041804B
:101D30008180C180704700003C210148FFF714BD3D
:101D40001404002010B50A48FEF78CFC0848C0882F
:101D500000280BD0064C1021303CE06A02F046F817
:101D60006168A06ABDE8104002F040B810BD0000F4
:101D70003000002010B500F0E7F92548FEF7F3FB2E
:101D80002448FFF7D2FF244B00220121234802F010
:101D90002FF9204C204A303CFC3A60620021204858
:101DA00002F0D4F81C4AA060D83A00211D4802F085
:101DB000CDF8194AE060B43A00211B4802F0C6F899
:101DC000154A2061903A0021184802F0BFF8124AE3
:101DD00060616C3A0021164802F0B8F80E4AA06122
:101DE000483A0021134802F0B1F80B4AE061243A66
:101DF0000021114802F0AAF820620748103001F0D3
:101E0000D3FFA0620448203001F0CEFFE06210BD95
:101E1000C0000020300000202C7B0008451D000879
:101E200069250008A529000845260008552B00084B
:101E3000DD270008012F0008252D00082DE9F041BD
:101E400086B000253E48009501950295039581696D
:101E500041F010018161816901F0100104918169F3
:101E600041F020018161816901F0200104918169C3
:101E700041F004018161816901F0040104918169EB
:101E800041F0080181618069DFF8B88000F0080046
:101E90004FF400770490002239464046FEF725FDB6
:101EA0004FF460400324CDE9000469462648FEF75C
:101EB00027FC49F62150CDE9000469464046FEF76B
:101EC0001FFC1E20009021480226CDE9010669462C
:101ED0004046FEF715FC4FF23F30CDE9000469465D
:101EE0001B48FEF70DFC01AA0120009782E8610063
:101EF00069464046FEF704FC002206210720FEF753
:101F0000D5FF0720FEF7C4FF002206210820FEF7B8
:101F1000CDFF0820FEF7BCFF002206210920FEF7B6
:101F2000C5FF0920FEF7B4FF002206210A20FEF7B4
:101F3000BDFF0A20FEF7ACFF06B0BDE8F08100004F
:101F40000010024000080140001001400000111084
:101F5000000C01400D4810B50B4901600C4941606F
:101F600000214FF480428160C0E903124161816128
:101F7000C1610162FEF7C4FC002803D0BDE8104037
:101F8000FEF76DBB10BD000000540040240300208C
:101F9000801A06000D4810B50B4901600C494160DC
:101FA00000214FF480428160C0E9031241618161E8
:101FB000C1610162FEF7A4FC002803D0BDE8104017
:101FC000FEF74DBB10BD0000005800407803002014
:101FD000801A060010B586B00024174800940194BA
:101FE00002940394049413490594016040F2E7318C
:101FF000C0E901144721C0E9031444618461FFF77B
:1020000039FA08B1FEF72BFB4FF480500090694677
:102010000948FFF7BFFA08B1FEF721FB049404A9B1
:1020200005480594FFF7F2F9002801D0FEF717FBE9
:1020300006B010BD002C0140CC03002010B58CB0C0
:1020400024216846FEF759F90024164809941449DA
:102050000A94C0E900144FF6FF71C0E9024104611F
:1020600084610320CDE900040120CDE90204049439
:10207000CDE90540079469460A480894FFF7F8FA45
:1020800008B1FEF7ECFA099409A906480A94FFF78B
:10209000BDF9002801D0FEF7E2FA0CB010BD000037
:1020A0000004004014040020FEE7000010B50FA15A
:1020B000016005210171012202730EA30361022355
:1020C00003750DA48461032404770DA40462042421
:1020D00080F824400CA4846280F82C100DA10163C8
:1020E000002141718271C371017210BD6D656E7501
:1020F0000000000073696E00737175617265000005
:1021000072616D7000000000747269616E676C65C9
:102110000000000074726170657A6F6964000000ED
:10212000FEE770B500240021204600F0BFF800252E
:10213000002000F047F96D1CEDB2802DF8D3641C2F
:10214000E4B2082CEFD370BD10B5C820FEF7B2FA88
:10215000AE2000F025F9D52000F022F9802000F013
:102160001FF9A82000F01CF93F2000F019F9D32036
:1021700000F016F9002000F013F9402000F010F9EB
:10218000A12000F00DF9C82000F00AF9DA2000F0D3
:1021900007F9122000F004F9812000F001F9CF20A6
:1021A00000F0FEF8D92000F0FBF8F12000F0F8F87C
:1021B000DB2000F0F5F8302000F0F2F8A42000F069
:1021C000EFF8A62000F0ECF88D2000F0E9F81420DC
:1021D00000F0E6F8AF2000F0E3F8BDE81040FFF7AC
:1021E000A0BF0246012000E05043491EFCD27047C8
:1021F0002DE9F0410746CE004000083E801E1546FE
:102200004FF0FF38F1B2C0B200F050F8114800248E
:1022100000EB05152819A0F5805090F8000E00F08D
:102220002FF8641CE4B2082CF4D308EB4700F1B299
:10223000C0B200F03BF800242819A0F5805090F8B7
:10224000080E00F01DF8641CE4B2082CF4D3BDE8BD
:10225000F08100007E6B00082DE9F04115460E4626
:102260000746002406E03019C1B23846FFF7C0FF28
:10227000641CE4B22A5D002AF5D1BDE8F0810000BB
:1022800001B584B001219DF810006422C0438DF88F
:10229000100004A88DE807000B4640227821024870
:1022A000FEF788FC05B000BD7803002010B50C4691
:1022B00040F0B00000F074F8102040EA141000F074
:1022C0006FF804F00F00BDE8104000F069B800009E
:1022D0002DE9F0410746CE004000083E801E15461D
:1022E0004FF0FF38F1B2C0B2FFF7E0FF1148002411
:1022F00000EB05152819A0F5805090F8000E00F0AD
:1023000061F8641CE4B2082CF4D308EB4700F1B286
:10231000C0B2FFF7CBFF00242819A0F5805090F839
:10232000080E00F04FF8641CE4B2082CF4D3BDE8AA
:10233000F08100007E6B00082DE9F04700241D4667
:102340001646884681460A2713E0291B0A20491EA3
:10235000FFF747FFB6FBF0F0B0FBF7F107FB110208
:1023600008EB0400C1B248463032FFF7B1FF641CED
:10237000E4B2AC42E9D3BDE8F0872DE9F04115465F
:102380000E460746002406E03019C1B23846FFF772
:102390009FFF641CE4B22A5D002AF5D1BDE8F081FC
:1023A00001B584B0012104A864228DE807000B4622
:1023B000002278210248FEF7FDFB05B000BD0000B9
:1023C0007803002001B584B0012104A864228DE8BF
:1023D00007000B46402278210248FEF7EBFB05B0D0
:1023E00000BD00007803002030B515A10160042174
:1023F00001710122027314A30361144B436114A3FE
:1024000083610223037713A404624FF07E5412A564
:10241000C0E90945032580F82C5010A5C0E90C54EB
:102420000DA4846380F83C100EA101640F4941643F
:102430000FA18164002141718271C371017230BDAD
:1024400072616D700000000066726500000020413E
:10245000487A0000616D7000560000006269617387
:10246000000000006475747900000000000048421C
:102470002500000030B515A1016004210171012281
:10248000027314A30361144B436114A383610223F9
:10249000037713A404624FF07E5412A5C0E90945E6
:1024A000032580F82C5010A5C0E90C540DA48463BA
:1024B00080F83C100EA101640F4941640FA18164B2
:1024C000002141718271C371017230BD73717561F8
:1024D000726500006672650000002041487A0000C5
:1024E000616D7000560000006269617300000000B9
:1024F0006475747900000000000048422500000067
:1025000030B511A1016003210171012202730FA3F3
:1025100003610F4B43610FA38361022303770EA472
:1025200004624FF07E540DA5C0E9094580F82C10D7
:102530000BA1C0E90C1409A18163002141718271D2
:10254000C371017230BD000073696E006672650070
:1025500000002041487A0000616D700056000000C4
:102560006269617300000000344D0127344C4FF064
:10257000FF380026434600220121A06A01F06CFCCE
:102580000A2001F0B3FB02212846FEF7A9F9012831
:102590004FF0040116D02846FEF7A2F901280CD00E
:1025A00008212846FEF79CF9012808D0102128466A
:1025B000FEF796F9012804D007E0022102E001218C
:1025C00000E00821E06A01F011FCE06A01F0D4FBB0
:1025D0006168022902D0082829D006E0012804D029
:1025E000042802D0022806D01FE06168A06A01F02A
:1025F000FDFB2670BEE7607806280AD2DFE800F00F
:102600000903050F1113042100E00821A06A01F05D
:10261000EDFB27700221E06A01F082FBAAE710219E
:10262000F4E72021F2E74021F0E70821F3E7022157
:10263000A06A01F0DBFB2770F7E70000000801400B
:10264000000000208EB06846FFF730FDFFF774FBF6
:10265000604C1421606A01F00DFD0221A06A01F0B6
:10266000C5FB4FF0FF366D46334600220221A06ABB
:1026700001F0F2FB60602078012829D1E06A01F0C6
:102680007BFB102824D0FFF74CFD01210846009A5F
:10269000FFF773FE9DF80500012105EBC0000269FC
:1026A0000220FFF7D9FD9DF80600012105EBC000CF
:1026B00002690320FFF761FE9DF80700012105EB89
:1026C000C00002690420FFF758FE4348FDF78EFF63
:1026D000E06A01F051FB012805D0E06A01F04CFBF3
:1026E000042840D071E0FFF71CFD01210846009A44
:1026F000FFF743FE9DF805109DF80400491CB1FB4F
:10270000F0F200FB1211C9B28DF805109DF80620F9
:10271000521CB2FBF0F300FB13228DF806209DF84B
:102720000720521CB2FBF0F300FB13208DF80700CA
:1027300005EBC100012102690220FFF78DFD9DF824
:102740000600012105EBC00002690320FFF715FE1A
:102750009DF80700012105EBC00002690420FFF786
:102760000CFE01212EE000202A18517909B99DF8AC
:102770000410401C491EC0B251710328F4D3FFF766
:10278000D0FC01210846009AFFF7F7FD9DF80500EF
:10279000012105EBC00002690220FFF75DFD9DF8F5
:1027A0000600012105EBC00002690320FFF7E5FDEB
:1027B0009DF80700012105EBC00002690420FFF726
:1027C000DCFD0421E06A01F0ABFA9DF80500401C35
:1027D000607049E700000020C000002096B002A809
:1027E000FFF702FE6B4C4FF0FF3702AE3B46002274
:1027F0001021A06A01F030FB60602078012823D10D
:10280000E06A01F0B9FA10281ED0FFF78AFC012116
:102810000846029AFFF7B1FD0025701900224079A1
:1028200006EB0011A81CC0B20C3100F0DBFD6D1CE2
:10283000EDB2032DF1D39DF80D00012206EB00113E
:1028400002200C3100F0CEFDE06A01F095FA01287B
:1028500005D0E06A01F090FA042822D053E001216B
:10286000E06A01F05DFA9DF80D109DF80C00491C1E
:10287000B1FBF0F200FB12118DF80D109DF80E1057
:10288000491CB1FBF0F200FB12118DF80E109DF8FF
:102890000F10491CB1FBF0F200FB12108DF80F0075
:1028A0000FE00421E06A01F03BFA00203218517970
:1028B00009B99DF80C10401C491EC0B25171032883
:1028C000F4D3FFF72EFC01210846029AFFF755FDCD
:1028D0009DF80D00012206EB001102200C3100F0E2
:1028E00081FD9DF80E00002206EB001103200C3143
:1028F00000F078FD9DF80F00002206EB0011042087
:102900000C3100F06FFDE06A01F036FA102817D1A3
:102910001021E06A01F004FA1E4830308288C18834
:102920009DF80D0006EB00100C30FDF7ADFD9DF895
:102930000D00012206EB001102200C3100F052FDC7
:10294000E06A01F019FA02287FF450AF0221E06A30
:1029500001F0E6F9139803F0F5FE0F4B642281B203
:10296000CDE90023C1F1630080B20123002201F010
:102970005BF9094B094A0F990B9801F0E5F8012121
:102980000846029AFFF768FC05480799FDF7F4FD31
:102990002CE700000000002094010020CC00002063
:1029A000C000002090B06846FFF7AAFD654C4FF0CC
:1029B000FF376E463B4600220421A06A01F04CFA24
:1029C00060602078012823D1E06A01F0D5F9102851
:1029D0001ED0FFF7A6FB01210846009AFFF7CDFCA9
:1029E000002570190022407906EB0011A81CC0B226
:1029F0000C3100F0F7FC6D1CEDB2032DF1D39DF806
:102A00000500012206EB001102200C3100F0EAFC67
:102A1000E06A01F0B1F9012805D0E06A01F0ACF9F3
:102A2000042822D053E00121E06A01F079F99DF8F1
:102A300005109DF80400491CB1FBF0F200FB1211D7
:102A40008DF805109DF80610491CB1FBF0F200FB53
:102A500012118DF806109DF80710491CB1FBF0F219
:102A600000FB12108DF807000FE00421E06A01F06E
:102A700057F900203218517909B99DF80410401C0B
:102A8000491EC0B251710328F4D3FFF74AFB01215C
:102A90000846009AFFF771FC9DF80500012206EB3D
:102AA000001102200C3100F09DFC9DF80600002270
:102AB00006EB001103200C3100F094FC9DF8070098
:102AC000002206EB001104200C3100F08BFCE06AC0
:102AD00001F052F9102817D11021E06A01F020F915
:102AE000184830308288C1889DF8050006EB001038
:102AF0000C30FDF7C9FC9DF80500012206EB001122
:102B000002200C3100F06EFCE06A01F035F9022879
:102B10007FF450AF0221E06A01F002F90A4801F0A7
:102B20005FF8094B094A0D99099801F00DF8012148
:102B30000846009AFFF790FB05480599FDF71CFD34
:102B400038E700000000002094010020CC000020A5
:102B5000C000002096B002A8FFF78CFC6D4C4FF02F
:102B6000FF3702AE3B4600220821A06A01F074F94B
:102B700060602078012823D1E06A01F0FDF8102878
:102B80001ED0FFF7CEFA01210846029AFFF7F5FBA7
:102B9000002570190022407906EB0011A81CC0B274
:102BA0000C3100F01FFC6D1CEDB2032DF1D39DF82C
:102BB0000D00012206EB001102200C3100F012FC86
:102BC000E06A01F0D9F8012805D0E06A01F0D4F8F4
:102BD000042822D053E00121E06A01F0A1F89DF819
:102BE0000D109DF80C00491CB1FBF0F200FB121116
:102BF0008DF80D109DF80E10491CB1FBF0F200FB92
:102C000012118DF80E109DF80F10491CB1FBF0F257
:102C100000FB12108DF80F000FE00421E06A01F0B4
:102C20007FF800203218517909B99DF80C10401C2A
:102C3000491EC0B251710328F4D3FFF772FA012183
:102C40000846029AFFF799FB9DF80D00012206EB5A
:102C5000001102200C3100F0C5FB9DF80E0000228F
:102C600006EB001103200C3100F0BCFB9DF80F00B7
:102C7000002206EB001104200C3100F0B3FBE06AE7
:102C800001F07AF8102817D11021E06A01F048F815
:102C9000204830308288C1889DF80D0006EB001076
:102CA0000C30FDF7F1FB9DF80D00012206EB001141
:102CB00002200C3100F096FBE06A01F05DF802287A
:102CC0007FF450AF0221E06A01F02AF84FF07E5104
:102CD000139803F041FE03F035FD0F4B6421CDE95D
:102CE000001382B2C2F16300012380B2194600F0E2
:102CF0009BFF094B094A0F990B9800F025FF012112
:102D00000846029AFFF7A8FA05480799FDF734FC30
:102D100028E700000000002094010020CC000020E3
:102D2000C00000209EB002A800F09CFA704C4FF04A
:102D3000FF3802AE434600224021A06A01F08CF821
:102D400060602078012823D1E06A01F015F810288E
:102D50001ED0FFF7E6F901210846029AFFF70DFBA6
:102D6000002570190022407906EB0011A81CC0B2A2
:102D70000C3100F037FB6D1CEDB2032DF1D39DF843
:102D80000D00012206EB001102200C3100F02AFB9D
:102D9000E06A00F0F1FF012805D0E06A00F0ECFFE6
:102DA000042822D053E00121E06A00F0B9FF9DF829
:102DB0000D109DF80C00491CB1FBF0F200FB121144
:102DC0008DF80D109DF80E10491CB1FBF0F200FBC0
:102DD00012118DF80E109DF80F10491CB1FBF0F286
:102DE00000FB12108DF80F000FE00421E06A00F0E4
:102DF00097FF00203218517909B99DF80C10401C3A
:102E0000491EC0B251710328F4D3FFF78AF901219A
:102E10000846029AFFF7B1FA9DF80D00012206EB71
:102E2000001102200C3100F0DDFA9DF80E000022A6
:102E300006EB001103200C3100F0D4FA9DF80F00CE
:102E4000002206EB001104200C3100F0CBFAE06AFE
:102E500000F092FF102817D11021E06A00F060FF07
:102E6000234830308288C1889DF80D0006EB0010A1
:102E70000C30FDF709FB9DF80D00012206EB001157
:102E800002200C3100F0AEFAE06A00F075FF022873
:102E90007FF450AF0221E06A00F042FF139803F084
:102EA00051FC87B2179803F04DFC85B21B9803F0D4
:102EB00049FC104B642182B2CDE90013C7F16400D4
:102EC000401B801A80B22B46394600F0ADFE094BFC
:102ED000094A0F990B9800F037FE01210846029A23
:102EE000FFF7BAF905480799FDF746FB22E700000E
:102EF0000000002094010020CC000020C000002031
:102F00009AB002A800F010FA6D4C4FF0FF3702AEF5
:102F10003B4600222021A06A00F09EFF60602078DE
:102F2000012823D1E06A00F027FF10281ED0FFF708
:102F3000F8F801210846029AFFF71FFA00257019D8
:102F40000022407906EB0011A81CC0B20C3100F041
:102F500049FA6D1CEDB2032DF1D39DF80D0001224D
:102F600006EB001102200C3100F03CFAE06A00F0A0
:102F700003FF012805D0E06A00F0FEFE042822D0FD
:102F800053E00121E06A00F0CBFE9DF80D109DF8A2
:102F90000C00491CB1FBF0F200FB12118DF80D1072
:102FA0009DF80E10491CB1FBF0F200FB12118DF8D8
:102FB0000E109DF80F10491CB1FBF0F200FB12102F
:102FC0008DF80F000FE00421E06A00F0A9FE002058
:102FD00031184A790AB99DF80C20401C521EC0B223
:102FE0004A710328F4D3FFF79CF801210846029A9E
:102FF000FFF7C3F99DF80D00012206EB0011022036
:103000000C3100F0EFF99DF80E00002206EB0011E4
:1030100003200C3100F0E6F99DF80F00002206EBCA
:10302000001104200C3100F0DDF9E06A00F0A4FE8C
:10303000102817D11021E06A00F072FE20483030CD
:103040008288C1889DF80D0006EB00100C30FDF75A
:103050001BFA9DF80D00012206EB001102200C3135
:1030600000F0C0F9E06A00F087FE02287FF450AF5C
:103070000221E06A00F054FE139803F063FB85B26E
:10308000179803F05FFB0F4A6421CDE9001283B269
:10309000C5F16400C01A80B20022294600F0C4FDC8
:1030A000084B094A0F990B9800F04EFD0121084684
:1030B000029AFFF7D1F805480799FDF75DFA27E76F
:1030C0000000002094010020CC000020C00000205F
:1030D00010B5402080F31188BFF34F8FBFF36F8F7F
:1030E00002F06AFB18B104494FF0805008600020DC
:1030F00080F3118810BD000004ED00E030B58FB002
:1031000028216846FDF7F9F814210AA8FDF7F5F81B
:1031100001210804CDE90010002402940225049145
:10312000CDE907504FF4E01009906846FDF7DCFF49
:1031300008B172B6FEE70F20CDE90A054FF48060B2
:10314000CDE90C4002210AA80E94FDF7E1FE00280B
:1031500001D072B6FEE70FB030BD70470148FEF7F0
:103160004BBB0000CC0300200148FEF745BB00002C
:103170005C040020F0B50268164B174C174D4FF059
:103180008047984205D0B84203D0A04201D0A8425F
:1031900003D122F070064A683243984205D0B84203
:1031A00003D0A04201D0A84203D122F44074CA68DF
:1031B00022434C6922F08002224302608A68C26284
:1031C0000A688262984201D1096901630121416163
:1031D000F0BD0000002C0140000400400008004049
:1031E00010B501F01F030121046A99408C43046269
:1031F000016A9A401143016210BD10B5846842EA29
:10320000032224F47F440A432243826010BD826873
:1032100022F070020A4342F007018160704710B546
:10322000036A046A24F001040462846924F0F0044F
:1032300044EA021423F00A020A438461026210BDC8
:1032400010B5036A046A24F010040462846923F050
:10325000A00324F4704444EA023243EA011182617B
:10326000016210BD30B51EA101600621017101226D
:1032700002731EA303611E4B43611EA383610223DD
:1032800003771DA404624FF07E541CA5C0E90945D4
:10329000032580F82C501AA5C0E90C5417A48463A8
:1032A000052480F83C4018A40464184C18A5C0E913
:1032B000114580F84C1017A1C0E9141414A18165C0
:1032C000072180F85C1015A101661649416610A11E
:1032D0008166002141718271C371017230BD0000AD
:1032E00074726170657A6F696400000066726500CF
:1032F00000002041487A0000616D70005600000017
:103300006269617300000000757000000000A04158
:1033100025000000646F776E00000000706C61741F
:10332000000000000000484230B519A101600521ED
:1033300001710122027319A30361194B436119A39F
:1033400083610223037718A404624FF07E5417A50B
:10335000C0E90945032580F82C5015A5C0E90C5497
:1033600012A4846380F83C1013A10164134914A4CF
:10337000C0E91114062480F84C4012A4C0E914419D
:103380000FA18165002141718271C371017230BD4D
:10339000747269616E676C6500000000667265009A
:1033A00000002041487A0000616D70005600000066
:1033B00062696173000000007570000000004842FF
:1033C00025000000646F776E0000000010B501F06A
:1033D000B1FA002805D0D0E90021BDE81040084628
:1033E000104710BD2DE9F04781464868002A0D4678
:1033F00002464FF00101484623D0FEF72DFFAC688E
:10340000204603F09FF9C6B206EB8600400003F0A9
:10341000B9F9DFF8988007464146204603F0C6F91F
:10342000394603F099FA03F08DF9C7B244450BDA37
:103430001FA205214846FEF7A0FF012332460821BE
:1034400019E0FEF79AFFDAE7184840422044B0F14D
:10345000D47F08D217A205214846FEF78EFF02232B
:103460003246072107E014A205214846FEF785FFF2
:103470000323324606214846FEF75EFF2E2209212D
:103480004846FEF725FF01233A460A214846FEF743
:1034900053FF09A20C214846FEF76FFF4846EA6831
:1034A000BDE8F0470D21FEF768BF00000000204195
:1034B000202020002020000020000000FEE749001E
:1034C00050EAC12018BF04204A0D18BF40F0010087
:1034D00040F2FF72B2EB515F08BF40F002000128DA
:1034E00008BF052070470907090E002804DB00F11A
:1034F000E02080F80014704700F00F0000F1E02099
:1035000080F8141D704700002DE9F74F144694B061
:103510000021C4E902111599079121F00045C9491C
:103520008D4206DC1599C4E9000117B00020BDE802
:10353000F08FC549DFF814A3A9423CDD0799C44EBA
:103540000029C44FC44A1599534619DD02F0BAFE4A
:10355000554506D0C14AC24B02F0B4FEC4E9000191
:103560000AE04FF0D352BE4B02F0ACFE32463B466F
:1035700002F0A8FEC4E9000117B00120BDE8F08FF9
:1035800002F034FB554506D0B44AB54B02F02EFB91
:10359000C4E900010AE04FF0D352B14B02F026FB20
:1035A00032463B4602F022FBC4E9000117B04FF05F
:1035B000FF30BDE8F08FAB49A942159978DB21F0C7
:1035C000004183468846A84AA84B02F071FD0022BC
:1035D000A74B02F00BFB02F011FD099002F03DFD3C
:1035E00006460F469C4A534602F062FD43465A4641
:1035F00002F05CFE80468A46984A994B304639462E
:1036000002F056FD2A0D01250B924246534602F068
:103610004DFE032DC4E9000139D00B98C1F30A51C6
:10362000401A05EB45111139814230DA9148C34601
:10363000784400EB0510CDF80CA00C90D0E90023E5
:103640003046394602F034FD02460B46049106909E
:103650005846039902F036FE80468A4602460B46DB
:103660005846039902F02EFE049B069A02F02AFEA9
:1036700083460C9803913946D0E90223304602F084
:1036800017FD5A46039B02F01DFE6D1CBDE707980F
:103690000028A2BF099817B0BDE8F08F616881F0DB
:1036A00000416160099817B04042BDE8F08FFFE724
:1036B00084461598C1F31301C0F30A50A0F2F53007
:1036C0004FEA601800F01F06C6F12000139000209A
:1036D0000690079041F4801E05206D4676B1664A3B
:1036E00008EB00017A4452F8213002EB8101B3402B
:1036F0004A68139922FA01F1194305E05F4908EB82
:103700000002794451F82210A1FB0E27A1FB0C13F3
:103710001A449A4234BF0123002303EB070A05EB46
:103720008003D3E901B70F448F4234BF0121002148
:1037300093448B4411B1934502D903E0934501D2E0
:10374000012100E00021C3E901B7514445F82010F0
:10375000011EA0F10100C1DC0298059F00F100509C
:10376000800F12900298DDE90356800002F075FC8C
:10377000834628460D9102F087FC6FF01D0203F08E
:1037800092F9CDE90E01304602F07EFC6FF03D0269
:1037900003F089F980468A46384602F075FC6FF0DE
:1037A0005D0203F080F9074642465346119102F04C
:1037B0001DFADDE90E2302F019FA5A460D9B02F0BC
:1037C00015FA00250E465A4628460D9B02F07AFD52
:1037D000DDE90E2302F076FD4246534602F072FD0B
:1037E0003A46119B02F062FDDFF898A0244A534646
:1037F00002F05EFC07468846234A244B31462846A1
:1038000002F056FC3A46434602F0F0F90746884675
:103810004FF0A84253463146284602F049FC3A464A
:10382000434602F0E3F9159A12F0004F04D0129AC1
:1038300081F0004152421292C4E90001129817B07F
:10384000BDE8F08FFB21E93F7CD90240FB21F93F25
:103850007370032E8A19A33B000040543163621A2F
:1038600061B4D03DFB21394183C8C96D305FE43F6D
:103870000000E03F8445000000450000E2440000F5
:10388000182D4454FB21F93D3326A611460B113C5B
:103890002DE9FF4D21F0004807460C46B8F1795F4D
:1038A00008DA02F0ABFB002801BF0020324904B067
:1038B000BDE8F08D3A4623461046194602F0F8FB63
:1038C000054602462D480E460B460621784400F078
:1038D0005DF82A46334602F0EBFBDDE9022382461F
:1038E0008B463846214602F0E3FB04460F4652461B
:1038F0005B462846314602F0DBFB22463B4602F09F
:10390000E1FC07468A464FF0FF322846314603F075
:10391000CAF81B4A90450ADA3A46534602F0D2FCEE
:1039200004B00022BDE8F04D134B02F0BFBC154AB5
:103930004245A8BFA8F500154FF00004B8BF124DCE
:1039400022462B4602F0BEFC0646884622462B46FF
:103950000020094902F0B6FC04460D463A4653469B
:103960003046414602F0AEFC04B022462B46BDE88C
:10397000F04D02F09BBC00000000F03FB842000098
:103980003333D33F0000E93F0000D23F2DE9F0413F
:103990004F1E00EBC7010446D1E9000115461E4643
:1039A00037F006020DD02A46334602F081FB7F1E17
:1039B00004EBC703D3E9002302F018F937F006023D
:1039C000F1D1022F25D0042F13D0062F18BFBDE848
:1039D000F0812A46334602F06BFBD4E90A2302F059
:1039E00005F92A46334602F063FBD4E9082302F0C6
:1039F000FDF82A46334602F05BFBD4E9062302F0C9
:103A0000F5F82A46334602F053FBD4E9042302F0CA
:103A1000EDF82A46334602F04BFBD4E9022302F0CC
:103A2000E5F82A46334602F043FBD4E90023BDE81B
:103A3000F04102F0DBB800002DE9FF4D054621F012
:103A4000004084B00C46B0F1795F0BDA2846FFF7EE
:103A500036FD042808BF00F06FF8284608B021465C
:103A6000BDE8F08D2A460B46104602F021FB0646C3
:103A70000F462A46234602F01BFB804626488A460C
:103A800032463B4605217844FFF780FF8346109875
:103A9000029160B3214A224B4046514602F008FB96
:103AA000CDE900015A4640465146029B02F000FB18
:103AB00082468846DDE906014FF0FF3202F0F3FF4F
:103AC0005246434602F0FEFB32463B4602F0F0FA15
:103AD000DDE9062302F0F6FBDDE9002302F0F2FB4C
:103AE00008B02A462346BDE8F04D02F0DFBB0B4686
:103AF0005A463046394602F0DBFA084A084B02F0D3
:103B000075F84246534602F0D3FA08B02A462346D7
:103B1000BDE8F04D02F06AB8F64100004955555530
:103B20005555C5BF012202F0BEBF00221346104604
:103B3000114602F00BB90000024A0020110702F002
:103B4000B2BF000001FDFFFF2DE9F05F89461F466F
:103B5000154664260C2102F0D4FF02F09DFCDFF82C
:103B600078804FF066342246434602F0EFF802F0C8
:103B70000BF883460C21484602F0C3FF02F08CFC90
:103B80002246434602F0E2F801F0FEFF824600249E
:103B90004FF400484FF4805957F82400594602F07A
:103BA00005FE514602F0A4FC0C4902F0A1FC02F013
:103BB000C9FD80B225F81400404503D3002025F844
:103BC000140003E0484501D925F81490641CA4B200
:103BD000B442E1D3BDE8F09F66660A400000C842E7
:103BE0002DE9F04700250E4FDFF8388081462E463C
:103BF0002C462846314600F0C1FE01F0C5FF49F8C9
:103C000024003A4643462846314601F0EFFF641C43
:103C1000A4B205460E46642CEBD3BDE8F087000045
:103C20005D36C891BF15B03F2DE9FF4F81B0064604
:103C3000DDE90E7891460D464FF07E54084602F0BD
:103C4000A1FD0146204602F0BBFC0090049802F062
:103C500099FD0146204602F0B3FC0024354483461A
:103C6000A944A24627E0B44221D3A54207D908EBD4
:103C70008400009950F8040C02F03AFC14E0A145CD
:103C800006D908EB840050F8041C48F8241010E012
:103C9000049909EB0100A04209D908EB84005946B8
:103CA00050F8040C02F058FE48F8240001E048F8EF
:103CB00024A0641CA4B2BC42D5D305B0BDE8F08FEB
:103CC000FDF764F8FFF71AFAFEF7B8F8FEF742F9C5
:103CD000FEF760F9FEF77EF9FEF7B0F900F0FAF8AA
:103CE000FEF748F800F012F9FEE7000010B5EFF318
:103CF000058149B9EFF3108131B9084909680229F2
:103D000005D1EFF3118111B16FF0050403E0002438
:103D100008B100F0C3FF204610BD0000980000204D
:103D200070B50E46050002D0300E002802D06FF0AC
:103D300003041CE0EFF3058048B9EFF3108030B9BD
:103D40000C48006802280ED1EFF3118058B12846C4
:103D500001F036F904463146284601F005F930B93C
:103D60006FF0020403E0284601F0DEF80446204626
:103D700070BD000098000020002811D0EFF30581ED
:103D800049B9EFF3108131B906490968022904D114
:103D9000EFF3118109B101F013B9002101F0C4B8AA
:103DA000704700009800002010B54FF00001EFF3BD
:103DB0000582BAB9EFF31082A2B90B4A1268022A3F
:103DC00002D1EFF311826AB948B1D0E902202AB1D9
:103DD000202807D3104601F0DDF802E010B901F009
:103DE000CBF80146084610BD9800002038B50C46B7
:103DF00010B1210E002902D06FF0030038BDEFF39F
:103E0000058149B9EFF3108131B9114909680229D7
:103E100019D1EFF31181B1B1002100916A46214619
:103E200001F022F910B16FF0020038BD0099204670
:103E30000029FAD0074A4FF080511160BFF34F8F2D
:103E4000BFF36F8F38BD214601F0C7F838BD0000C1
:103E50009800002004ED00E0F8B51D4616460C461B
:103E600010B1210E002902D06FF00300F8BDEFF36E
:103E7000058149B9EFF3108131B915490968022963
:103E800005D1EFF3118111B16FF00500F8BDF10715
:103E900001D0012300E00023B10701D5002200E09A
:103EA00001222146009501F0E7F8F3076FF00101C8
:103EB0006FF0020206D0844206D1F8BD0846F8BD74
:103EC0001046F8BD0442FCD1002DF9D0F6E7000001
:103ED00098000020EFF3058058B9EFF3108040B947
:103EE00009490868022801D030B109E0EFF31180D8
:103EF00030B16FF005007047012008600020704766
:103F00004FF0FF30704700009800002010B5EFF32D
:103F1000058060B9EFF3108048B90B4908680228A2
:103F200002D0012806D00BE0EFF3118040B16FF012
:103F3000050010BD0220086000F078FF002010BDD1
:103F40004FF0FF3010BD000098000020F0B585B0A4
:103F50004FEA01034FF00004EFF305810394A1BB86
:103F6000EFF3108189BB21490968022902D1EFF3DF
:103F7000118151BB48B3802618218DF8104004AD43
:103F800042B3176807B13D4697691FB139467F1E96
:103F9000382F02D21779FF0702D0002005B0F0BDFC
:103FA000576907B1BE08D2F808C0BCF1000F0DD0A8
:103FB000D4685C2C18D312693AB137B18DE8061079
:103FC0003246294601F0B9FB03900DE0D7685FB98E
:103FD00012694AB903AACDE90012B2B2294601F02A
:103FE0007FFB012800D003940398D7E798000020B6
:103FF0002DE9FC411C461746884606464FF0000551
:10400000EFF3058078BBEFF3108060BB17480068C2
:10401000022802D1EFF3118028BB26B3082000F05C
:104020001DFC03001FD0B8F1000FC3E9006711D0D9
:1040300001220F4E00208CB1216801B10846A16811
:1040400051B1E468302C0ED3CDE90061012101F0BB
:104050000BFD07E00022ECE7E16821B901210096A1
:1040600001F0E8FC05462846BDE8FC8198000020E8
:10407000CD33000808B5EFF305824AB9EFF310829B
:1040800032B90E4A1268022A05D1EFF3118212B139
:104090006FF0050008BD58B10022134600920A4691
:1040A000042101F029FD012805D06FF0020008BDB0
:1040B0006FF0030008BD002008BD0000980000203C
:1040C0002DE9F041134C0F46054666692068001D36
:1040D00000F0A4FC681C07D137B12168BDE8F041AD
:1040E0000D48091D00F0FABC20683544B542456012
:1040F000216805D2A068BDE8F041091D00F0D6BCDA
:104100006068091D00F0D2FC206B854200D2256357
:10411000BDE8F08148000020940900202DE9F0411D
:10412000054600F0E7FC2D4C2069401C206120680A
:104130002B4F10B1E06930B32BE0256020690128D6
:1041400027D1002606EB860007EB800000F0A0FCDC
:10415000761C382EF6D3234800F09AFC2148143000
:1041600000F096FC1F48283000F092FC1D483C30BF
:1041700000F08EFC1B48503000F08AFC194860604B
:104180001430A06005E02068E96AC06A884200D85F
:104190002560E06A401CE0626864E86AA1698842C0
:1041A00000D9A06100EB800007EB8000291D00F022
:1041B00095FC00F0BFFCE06900280CD02068E96A9B
:1041C000C06A884207D208494FF080500860BFF3A8
:1041D0004F8FBFF36F8FBDE8F081000048000020D3
:1041E000E40400204409002004ED00E038B500F0AC
:1041F00081FC104CA068C8B90F4800F049FC0E487B
:10420000143000F045FC0C482060143060600A4B0C
:1042100000202833009003F1500210210A2001F001
:1042200003F8A06010B105A100F002FDBDE8384020
:1042300000F080BC84000020A8090020546D725159
:104240000000000030B4026C0B46002A0BD0C1689D
:104250001144C1604468A14201D30168C16030BC0F
:104260001846FBF7FDBF30BC70472DE9F041856B68
:10427000174604460026026C82B1C7B1E068FBF71E
:10428000EFFFE168206C091AE1602268914202D2D6
:104290006168081AE060022F16D017E02068A8B9FC
:1042A000606801F0EDFA0646002060600EE0A0684C
:1042B000FBF7D6FF216CA0680844A06061688842C3
:1042C00004D32068A06001E005B16D1E6D1CA563DC
:1042D0003046BDE8F08110B5044690F8590058B159
:1042E00001280CD002280FD0402080F31188BFF3A2
:1042F0004F8FBFF36F8FFEE7206B00F02FFC20463F
:10430000BDE8104000F02ABC10BD000010484FF47A
:104310002051420706D0C01D0D4920F00700411A68
:10432000C1F520510B4A00230144C2E900030839BA
:10433000103A21F0070111604B600B600B1AC0E9C5
:10434000001393604FF000405360D060704700004E
:1043500078110020AC000020144E154CA6F29C47AA
:104360004FF08058DFF84C9012E000BF00F0C2FB25
:10437000F068C568281D00F051FB2069401E2061CF
:10438000E068401EE06000F0D5FB2846FFF7A3FF81
:10439000E0680028EAD138680128F9D9C9F8008016
:1043A000BFF34F8FBFF36F8FF2E70000800900204B
:1043B0004800002004ED00E070B51D46049C51B19A
:1043C000C4F80020C4E90F010121204600F060FF7D
:1043D00084F84C5070BD2460F4E72DE9F0470E4698
:1043E000DDE909841746824691009946089DA52279
:1043F000206BFBF77AFF6FF00301206B01EB870165
:10440000084420F00707780707D0402080F3118880
:10441000BFF34F8FBFF36F8FFEE72218315C82F836
:104420003410315C11B1401C1028F6D3002684F8FA
:104430004360382D00D33725E562C4E91356201DAB
:1044400000F031FB04F1180000F02DFB2461C5F1F0
:1044500038006462A061666584F858604A46514637
:10446000384600F079FA2060B8F1000F01D0C8F8A2
:104470000040BDE8F0872DE9F0471E46DDE90894CD
:1044800017460D0080460ED0002C14D0FFF7AEFE6C
:10449000C4F80080C4E90657C4E90869201DBDE8D6
:1044A000F04700F000BB402080F31188BFF34F8F2E
:1044B000BFF36F8FFEE7BDE8F087000030B511490C
:1044C00000E011460A688242FBD34B685C188442C4
:1044D00003D1406818444860084643681C18944259
:1044E00009D1084C103C2468A24209D052681A44F1
:1044F00042600A6812680260814200D0086030BDE4
:104500000460F9E7AC00002070B5002441600B4D59
:104510000061914206D8D11A8269914206D2011DEA
:10452000686807E09A4203D2994201D3012403E06C
:10453000011D286800F0BAFA204670BD84000020F2
:1045400010B5044600F0D6FAA06B28B15FF0000465
:1045500000F0F0FA204610BD0124F9E730B589B02B
:10456000304D55E00498002806DADDE90601059A89
:104570009047049800284BDB069C606910B1201D11
:1045800000F04CFA02A800F0B9F8024604980A2894
:104590003ED2DFE800F00505053D263705053D263E
:1045A0000598A169034601442046FFF7ADFF00B31B
:1045B000616A20468847E069012829D100200090DF
:1045C0000598A169002342181946204601F094FA83
:1045D00078B9402080F31188BFF34F8FBFF36F8FFE
:1045E000FEE70598A06128B1811813462046FFF721
:1045F0008BFF0DE0402080F31188BFF34F8FBFF396
:104600006F8FFEE794F82C0010B9204600F0A6FA50
:10461000002204A9A86800F08DFF0028A2D109B0EB
:1046200030BD0000840000202DE9FC410F46054606
:1046300000F040FC01A800F061F80446019818B1B0
:1046400001F096F9BDE8FC81224EAFB170680068B8
:10465000A8B30027291B3A46B06800F0FDFA01F024
:1046600087F90028EED11C494FF080500860BFF355
:104670004F8FBFF36F8FE5E7A542EBD801F078F9D4
:1046800030682746C068C468201D00F0C7F9E0699B
:10469000012810D1A0692B4641193A462046FFF760
:1046A00033FF40B100200346014600902A462046D1
:1046B00001F022FA20B1616A20468847C2E707E08C
:1046C000402080F31188BFF34F8FBFF36F8FFEE759
:1046D0000127BFE78400002004ED00E006484168A0
:1046E000096829B14168C968C968496801637047A8
:1046F0004FF0FF31FAE700004800002070B5054692
:1047000001F054F8064E04463069844203D200F0AA
:1047100009F8012000E0002028602046346170BDC7
:1047200084000020F8B5194D1FE0C068C468066811
:10473000201D00F073F9616A20468847E06901286E
:1047400013D1A0693044B04206D924616060211DB4
:10475000286800F0ABF908E000200346014600900D
:104760003246204601F0C8F938B1286801680029AE
:10477000DBD16968C5E90010F8BD402080F31188DD
:10478000BFF34F8FBFF36F8FFEE700008400002060
:1047900008484068401C4FF0400080F3118804D066
:1047A000BFF34F8FBFF36F8FFEE7BFF34F8FBFF3A2
:1047B0006F8FFEE7B40000200346002012B199433A
:1047C00002D070470B42FCD001207047074C206894
:1047D000016841B1C0680021D0F80000FFF724FF54
:1047E000FFF7BCFEF3E701210020F7E7840000207B
:1047F0002DE9F041044600F07DF994F9455004F1AB
:10480000240609E0606A48B1304601F079F808B141
:1048100000F072FA6D1E6DB2002DF3DC4FF0FF3622
:1048200084F8456000F086F900F064F994F944508A
:1048300004F1100709E0206948B1384601F060F83A
:1048400008B100F059FA6D1E6DB2002DF3DC84F84A
:104850004460BDE8F04100F06DB900002DE9F04181
:104860000546002700F026FB314E306808B9FFF7F7
:104870004DFDF06805424BD1C5B3083568070ED031
:1048800005F00700C0F108000544680707D0402084
:1048900080F31188BFF34F8FBFF36F8FFEE72DB307
:1048A0007068854234D82248103001460C6801E017
:1048B00020460C466168A94202D221680029F7D13E
:1048C00031688C4224D0076821680160606808372D
:1048D000411B10290FD96019420708D0402080F3EE
:1048E0001188BFF34F8FBFF36F8FFEE710E0416079
:1048F0006560FFF7E3FD61687068401A7060B26838
:10490000904200D2B060F06801430020C4E9000189
:1049100001F02EF8780707D0402080F31188BFF30C
:104920004F8FBFF36F8FFEE73846BDE8F081000080
:104930009C00002010B5040006D000F0DBF8246ACB
:1049400000F0F8F8204610BD402080F31188BFF336
:104950004F8FBFF36F8FFEE710B5031F4FF08074CA
:104960001C601B1F21F001011960191F024B0B6015
:10497000143940380A6010BD9147000800B5254B36
:1049800021F0004287B09A4203DC002213460092D5
:104990002BE0214B9A4208D140B94FF00100FBF7C0
:1049A000DBFCFFF7C2F807B000BD03DBFFF7BAF886
:1049B00007B000BD02AAFEF7A7FD10F003014FF0FB
:1049C00001000DD0012914D002291AD00DF1080CD4
:1049D0009CE80F00FEF75CFF07B081F0004100BDCE
:1049E0000DF1080C00909CE80F00FFF725F807B0C8
:1049F00000BD0DF1080C9CE80F00FEF749FF07B061
:104A000000BD0DF1080C00909CE80F00FFF714F8B2
:104A1000E2E70000FB21E93F0000F07FD0E901322E
:104A200001699A60D0E901235A604A68824201D143
:104A300082684A60002202610868401E08600868B7
:104A400070470000044908680A688069D26A0968EA
:104A5000C2F138028A61704748000020034B0360AE
:104A600003F15C000860802010607047C00A0020DD
:104A7000044B036003F15C0008604FF48070106029
:104A8000704700001C0D002000F04EBA00F0A5BADF
:104A900000F108014FF0FF32C0E90112C16001616D
:104AA00000210160704700210161704730B50B683B
:104AB0005A1C02D000F1080202E0026904E022461A
:104AC000546825689D42FAD953684B6099608A60A2
:104AD000516008610168491C016030BD42684A604C
:104AE00093688B6093685960916008610168491C04
:104AF00001607047402080F31188BFF34F8FBFF3F0
:104B00006F8F0A494868401C486001280CD108484A
:104B1000006810F0FF0F07D0402080F31188BFF32A
:104B20004F8FBFF36F8FFEE770470000B400002087
:104B300004ED00E00849486828B1401E486001D1F2
:104B400080F311887047402080F31188BFF34F8FA6
:104B5000BFF36F8FFEE70000B400002070B500289F
:104B600027D0144DA0F108046168E868014207D11C
:104B7000402080F31188BFF34F8FBFF36F8FFEE7A4
:104B800022683AB1402080F31188BFF34F8FBFF302
:104B90006F8FFEE78143616000F08CF9606869689F
:104BA000084468602046FFF789FCBDE8704000F0CB
:104BB000DFBE70BD9C0000204FF0E02000210161AD
:104BC000816105494FF47A720968B1FBF2F1491E1F
:104BD00041610721016170474400002010B5FBF7D7
:104BE0001BFB114910280ED300F1E02090F8F003D0
:104BF0000A78904207D2402080F31188BFF34F8F8C
:104C0000BFF36F8FFEE709480068896800F4E06031
:104C1000884207D9402080F31188BFF34F8FBFF33C
:104C20006F8FFEE710BD0000B40000200CED00E027
:104C300010B5084B002200BF53F832401CB1521C83
:104C4000082AF9D310BD43F8321003EBC2014860C3
:104C500010BD0000A404002070B515460E460446A1
:104C6000FFF748FF94F944100020491C01D184F853
:104C7000440094F94510491C01D184F84500FFF720
:104C800059FFA06B28B92A46314604F1240000F0F0
:104C900051F82046BDE87040FFF7AABD10B50200EC
:104CA00014D00F48806B38B1402080F31188BFF3D7
:104CB0004F8FBFF36F8FFEE700F0FCF80021104626
:104CC000FFF7FEF900F054FE002807D105494FF028
:104CD00080500860BFF34F8FBFF36F8F10BD00008F
:104CE0004800002004ED00E002498A6A0260496938
:104CF0004160704748000020014901204862704728
:104D00004800002010B50C4650B109490968183117
:104D1000FFF7CCFE2046BDE810400121FFF7D0B9D7
:104D2000402080F31188BFF34F8FBFF36F8FFEE7F2
:104D30004800002070B514460D4668B10A4909685C
:104D40001831FFF7CBFE0CB14FF0FF352146284656
:104D5000BDE87040FFF7B4B9402080F31188BFF37D
:104D60004F8FBFF36F8FFEE74800002010B5144649
:104D7000030011D01048826BB2B1026841F00041CB
:104D80009161016818461831FFF7A8FE2046BDE87A
:104D900010400121FFF794B9402080F31188BFF340
:104DA0004F8FBFF36F8FFEE7402080F31188BFF372
:104DB0004F8FBFF36F8FFEE74800002070B5194D8D
:104DC000AA6BF2B141F000410160C4680CB3FFF777
:104DD00025FE201DFFF722FEE06AA969884200D95E
:104DE000A861114900EB800001EB8000211DFFF755
:104DF00075FEE06A2968C96A884201D901206862A3
:104E000070BD402080F31188BFF34F8FBFF36F8FC9
:104E1000FEE7402080F31188BFF34F8FBFF36F8F01
:104E2000FEE7000048000020E404002030B587B011
:104E30000024039405AA04A903A80494FFF70EFE16
:104E4000DDE903010094CDE90110002315A1174805
:104E5000059A00F072FC164D002868631FD000F020
:104E60001BFE012809D0401C19D1402080F3118875
:104E7000BFF34F8FBFF36F8FFEE7402080F31188A1
:104E8000BFF34F8FBFF36F8F4FF0FF3028630120C8
:104E9000E8616C6107B0BDE8304000F071B907B05F
:104EA00030BD000049444C45000000005943000853
:104EB000480000200248816B491C81637047000054
:104EC00048000020164810B5816B11B101214162E4
:104ED00010BD002141628169124A01E0B9B1491E49
:104EE00001EB810352F82330002BF7D001EB810353
:104EF00002EB830202F1080453685B685360A3422B
:104F000001D15B685360DA680260816110BD4020A6
:104F100080F31188BFF34F8FBFF36F8FFEE7000060
:104F200048000020E404002070B50E46040009D0BB
:104F3000300E0FD0402080F31188BFF34F8FBFF3A6
:104F40006F8FFEE7402080F31188BFF34F8FBFF3D0
:104F50006F8FFEE7FFF7CEFD256825EA060020608B
:104F6000FFF7E8FD284670BD0A46014600230148C8
:104F700000F0F6BD894A000870B52020FFF76EFCEE
:104F8000040005D00025201D2560FFF781FD257751
:104F9000204670BD38B558B120210446002000914C
:104FA0002060201DFFF774FD01202077204638BDCA
:104FB000402080F31188BFF34F8FBFF36F8FFEE760
:104FC0004022EFF3118182F31188BFF34F8FBFF3BB
:104FD0006F8F006881F3118870472DE9F041002739
:104FE000884604000AD05FEA18600FD0402080F3A2
:104FF0001188BFF34F8FBFF36F8FFEE7402080F320
:105000001188BFF34F8FBFF36F8FFEE7261D04F1AA
:105010000C05FFF74FFF2168F06841EA08012160A5
:1050200017E0D0E9001601F07F425301236821F018
:105030007F4102D40B4203D10AE031EA030307D1D6
:10504000D20100D50F43216841F00071FFF7B6FE91
:105050003046A842E5D12068B843206000F088FCC3
:105060002068BDE8F081000013460A460146014869
:1050700000F076BD8D4A00082DE9F0479A46DDF82C
:10508000209090460D4604004FF0000709D0280EEE
:105090000FD0402080F31188BFF34F8FBFF36F8F85
:1050A000FEE7402080F31188BFF34F8FBFF36F8F6F
:1050B000FEE71DB100F06CFB40B112E0402080F330
:1050C0001188BFF34F8FBFF36F8FFEE7B9F1000F69
:1050D00007D0402080F31188BFF34F8FBFF36F8F4D
:1050E000FEE7FFF7E7FE2668524629463046FFF7FF
:1050F00063FB30B1B8F1000F1AD02068A8432060DC
:1051000016E0B9F1000F13D0B8F1000F01D04FF045
:105110008077BAF1000F01D047F0806745EA0701B8
:105120004A46201DFFF722FE00F022FC18B10AE0DB
:1051300000F01EFC1FE011494FF080500860BFF3E3
:105140004F8FBFF36F8FFFF77DFC0646800110D4B1
:10515000FFF7D0FC2668524629463046FFF72CFB65
:1051600028B1B8F1000F02D02068A8432060FFF7F3
:10517000E1FC26F07F463046BDE8F08704ED00E014
:105180001CB5264908780190FF20087008788DF832
:1051900000009DF800009DF8002000F0F000904213
:1051A00007D0402080F31188BFF34F8FBFF36F8F7C
:1051B000FEE79DF800001A4B00F040001870072031
:1051C000986005E09DF8002052008DF80020401EF8
:1051D0009DF800201206F5D49860032807D04020DF
:1051E00080F31188BFF34F8FBFF36F8FFEE74FF44B
:1051F00040709860019808700A48016841F4700195
:105200000160016841F070410160FFF7D5FC0020AA
:105210005860FAF7CBFF00201CBD000000E400E05E
:10522000B400002020ED00E038B5049D18B153B162
:10523000CAB181B120E0402080F31188BFF34F8FC5
:10524000BFF36F8FFEE7402080F31188BFF34F8FCD
:10525000BFF36F8FFEE7402080F31188BFF34F8FBD
:10526000BFF36F8FFEE739B1402080F31188BFF3A1
:105270004F8FBFF36F8FFEE750241C46012384F845
:1052800046302B460094FFF797F8204638BD0000C3
:1052900070B50D46040025D0FFF72CFCD4E90F2093
:1052A000216802FB001161600021A1632168A160F7
:1052B0000A46D4E90F01401E00FB0121E1602146AE
:1052C0004FF0FF3001F8440F487004F110008DB129
:1052D000FFF7DEFB04F12400FFF7DAFBFFF72AFCFF
:1052E000012070BD402080F31188BFF34F8FBFF3C2
:1052F0006F8FFEE721690029F0D000F001FB002844
:10530000ECD004494FF080500860BFF34F8FBFF3DB
:105310006F8FE3E704ED00E02DE9FF4782B01D4603
:105320008A464FF00008040003D0BAF1000F08D0FD
:1053300011E0402080F31188BFF34F8FBFF36F8FD0
:10534000FEE7206C38B1402080F31188BFF34F8F07
:10535000BFF36F8FFEE7022D0AD1E06B012807D063
:10536000402080F31188BFF34F8FBFF36F8FFEE7AC
:1053700000F00EFA3F4F4FF000094FF0805648B949
:10538000049838B1402080F31188BFF34F8FBFF3EA
:105390006F8FFEE7FFF7AEFBA06BE16B884207D390
:1053A000022D05D00498D0B1B8F1000F1AD01EE03C
:1053B0002A4651462046FEF758FF616A19B104F1AA
:1053C000240000F09DFA20B13E60BFF34F8FBFF381
:1053D0006F8FFFF7AFFB012006B0BDE8F087FFF746
:1053E000A9FB22E06846FFF77FFC4FF00108FFF7BA
:1053F000A1FBFFF75FFDFFF77DFB94F94400401C24
:1054000001D184F8449094F94500401C01D184F8FE
:105410004590FFF78FFB04A9684600F027F930B1EB
:105420002046FFF7E5F900F0A3FA0020D4E7FFF7E4
:1054300061FBA06BE16B884213D1FFF77BFB04F1AA
:1054400010000499FFF75EFC2046FFF7D1F900F049
:105450008FFA00289ED13E60BFF34F8FBFF36F8F4E
:1054600098E7FFF767FB2046FFF7C2F900F080FAE4
:1054700090E7000004ED00E02DE9F0471F4690465C
:105480008946040003D0B9F1000F08D011E0402094
:1054900080F31188BFF34F8FBFF36F8FFEE7206C4F
:1054A00038B1402080F31188BFF34F8FBFF36F8F67
:1054B000FEE7022F0AD1E06B012807D0402080F3DD
:1054C0001188BFF34F8FBFF36F8FFEE7FFF786FBA7
:1054D0004020EFF3118680F31188BFF34F8FBFF3A5
:1054E0006F8FA06BE16B884206D3022F04D000209F
:1054F00086F31188BDE8F08794F945503A4649464D
:105500002046FEF7B2FE681C04D06D1C84F845509E
:105510000120EDE7606A0028FAD004F1240000F0D1
:10552000EFF90028F4D0B8F1000FF1D00121C8F84C
:105530000010EDE72DE9F747002683B08A46040006
:1055400003D0BAF1000F08D011E0402080F3118899
:10555000BFF34F8FBFF36F8FFEE7206C38B1402051
:1055600080F31188BFF34F8FBFF36F8FFEE700F01A
:105570000FF9DFF8F4804FF000094FF0805748B979
:10558000059838B1402080F31188BFF34F8FBFF3E7
:105590006F8FFEE7FFF7AEFAA56BC5B15146204607
:1055A000FEF750FE6D1EA563206950B104F1100096
:1055B00000F0A6F928B1C8F80070BFF34F8FBFF311
:1055C0006F8FFFF7B7FA012006B0BDE8F0870598A6
:1055D00008B11EB106E0FFF7ADFA27E06846FFF715
:1055E00083FB0126FFF7A6FAFFF764FCFFF782FAB8
:1055F00094F94400401C01D184F8449094F945008A
:10560000401C01D184F84590FFF794FA05A968463B
:1056100000F02CF8002820460AD0FFF7E9F800F047
:10562000A7F92046FEF78CFF0028B3D00020CBE777
:10563000FEF786FF90B104F124000599FFF762FBA5
:105640002046FFF7D5F800F093F90028A2D1C8F85A
:105650000070BFF34F8FBFF36F8F9BE72046FFF7BC
:10566000C7F800F085F995E704ED00E02DE9F04179
:105670000C46050011D0C4B1FFF73CFA174B5A692C
:105680006E682068911B471C17D02F689B6A9F4249
:1056900019D0964217D8012410E0402080F31188D9
:1056A000BFF34F8FBFF36F8FFEE7402080F3118869
:1056B000BFF34F8FBFF36F8FFEE70024FFF73AFA77
:1056C0002046BDE8F081884205D9401A206028466E
:1056D000FFF70AFBF1E700202060DCE7480000202C
:1056E0002DE9FF5F8346DDE90E87994616468A4617
:1056F0009000FFF7B3F805001CD05C20FFF7AEF870
:10570000040014D00020256384F85900CDE902403C
:10571000CDE900874B46324651465846FEF75DFEBE
:105720002046FEF7FBFC012004B0BDE8F09F2846B0
:10573000FFF714FA4FF0FF30F6E7F0B585B0DDE97A
:105740000B640A9DA6B1DCB15C2700972663022694
:1057500084F85960002604AFCDE90246CDE9005730
:10576000FEF73BFE2046FEF7D9FC049805B0F0BDDD
:10577000402080F31188BFF34F8FBFF36F8FFEE798
:10578000402080F31188BFF34F8FBFF36F8FFEE788
:105790000548C16919B1806B18B10020704701201C
:1057A000704702207047000048000020014840690F
:1057B00070470000480000202DE9F0412E4C0027E2
:1057C000A06B40B1206A401C2062606A00B10127D2
:1057D0003846BDE8F0816669761C666113D1606861
:1057E000006838B1402080F31188BFF34F8FBFF3BA
:1057F0006F8FFEE76068A1686160A060A06A401CCE
:10580000A062FEF76BFF206BDFF87080864209D341
:105810006068006880B16068C068C5686868864272
:105820000DD220632068C06A00EB800158F8210087
:105830000128CAD90127C8E74FF0FF30F1E7281D3A
:10584000FFF7ECF8A86A18B105F11800FFF7E6F8C1
:10585000E86AA169884200D9A06100EB800108EBE9
:105860008100291DFFF73AF9E86A2168C96A884270
:10587000CED30127CCE7000048000020E40400203C
:1058800070B504004FF0000133D01B4D28688442EE
:1058900007D0402080F31188BFF34F8FBFF36F8F85
:1058A000FEE7206D38B1401E2065E36CE26A9A4243
:1058B0001FD040B11DE0402080F31188BFF34F8F0F
:1058C000BFF36F8FFEE7201DFFF7A8F8E06CE062E2
:1058D000C0F13800A061E06AA969884200D9A861D6
:1058E000064900EB800001EB8000211DFFF7F6F870
:1058F0000121084670BD000048000020E40400209B
:1059000070B5C068C46854B104F118000646FFF7CA
:1059100085F8144DA86B50B13146134815E040206E
:1059200080F31188BFF34F8FBFF36F8FFEE7201D09
:10593000FFF774F8E06AA969884200D9A8610B49A9
:1059400000EB800001EB8000211DFFF7C7F8E06A43
:105950002968C96A884202D90120686270BD0020A6
:1059600070BD0000480000206C090020E404002005
:105970002DE9F0472C4D00242746A86B38B1FFF7DE
:10598000B9F8A86B401EA863A86B40B146E0402060
:1059900080F31188BFF34F8FBFF36F8FFEE7296944
:1059A000224E0120D1B3A6F5916980463068E0B15E
:1059B000F068C46804F11800FFF730F8201DFFF705
:1059C0002DF8E06AA969884200D9A86100EB80013E
:1059D00009EB8100211DFFF781F8E06A2968C96A97
:1059E0008842E3D3C5F82480E0E70CB1FEF776FEE9
:1059F0002C6A4CB14FEA0806FFF7DEFE00B16E627A
:105A0000641EF9D100202862686A38B1084901276C
:105A100038070860BFF34F8FBFF36F8FFFF78AF827
:105A20003846BDE8F0870000480000206C090020DF
:105A300004ED00E02DE9FC4781461E4617468846E6
:105A400030200A9DFEF70AFF04000AD0CDE9005479
:105A500033463A4641464846FEF70DFD002084F89D
:105A60002C002046BDE8FC877CB53026DDE90654D5
:105A7000009644B1CDE90054FEF7FDFC012084F806
:105A80002C0020467CBD402080F31188BFF34F8F4F
:105A9000BFF36F8FFEE7000010B586B0FEF7A6FBE0
:105AA000114CA068B8B100200390049005AA04A985
:105AB00003A8FEF7DDFFDDE9032102208DE80700E2
:105AC00000230AA10B48059AFFF737FEE06010B1EA
:105AD00006B0012010BD402080F31188BFF34F8F26
